:020000040000FA
:04000000EEEF2EF001
:04567400120012000E
:105679000100020101080ED56ED58E12004AC00143
:10568900F04BC002F01200F2A44DEF2BF04FEF2BBC
:10569900F048EF2BF01200670EAF6EAC9CAC8AACF1
:1056A90098AC84AB8EAB9CAB881200016E01C0AD87
:1056B900FFACA262EF2BF064EF2BF05DEF2BF01241
:1056C90000640E9AEC30F026C001F027C002F0D039
:1056D900EC2FF0000E9AEC30F012009492030ECAEF
:1056E90012CA840C0EBA6E000E106E640E0F6ED4C0
:1056F900EC2BF012000E6E000E0B6E000E0A6E0EF1
:105709005045EC2FF0000E026E020E016E66EC2C75
:10571900F012000E6E000E0B6E010E0A6E0E504551
:10572900EC2FF0000E026E500E016E3AEC2BF012C7
:1057390000D8900134036E0234046E031E041E3235
:105749000E035E000E045A0450D76E03C0D6FFF252
:105759009412001B501D02F3CF1FF0F4CF20F01B51
:10576900501E02F35020261C501D02F35020261F04
:10577900C01BF020C01CF012000C6E0CC007F00812
:105789006A22EC2EF0000E026E1D0E016E0AC00395
:10579900F00BC004F065EC3AF076EC2DF0120048FD
:1057A9000E016EE80E026E010E036E000E046E0FFE
:1057B900C005F010C006F0076A086A0CEC34F00165
:1057C90004CB6E1200000E2C6E320E2B6E8BEC3158
:1057D900F02B50326E3250D8B4F5EF2BF0F7EF2B97
:1057E900F0FAEF2BF032C077F0786A1200000E025F
:1057F9006E080E016E000E046E010E036E65EC3A22
:10580900F0000E026E080E016E000E046E000E030B
:105819006E65EC3AF01200000E026E1F0E016E006A
:105829000E046E010E036E65EC3AF0000E026E1F57
:105839000E016E000E046E000E036E65EC3AF01256
:1058490000000E026E0B0E016E000E046E000E03B8
:105859006E8CEC3BF0000E026E0B0E016E000E0416
:105869006E000E036E65EC3AF01200000E026E0C2B
:105879000E016E000E046E000E036E8CEC3BF00000
:105889000E026E0C0E016E000E046E000E036E65A4
:10589900EC3AF012003AEC2CF03BEC2BF0E3EC2C58
:1058A900F00009D8B45BEF2CF05DEF2CF053EF2C2E
:1058B900F03BEC2BF0FFEC2CF03BEC2BF0000E5204
:1058C9006E1200000E056E000E046E6EEF2CF004D1
:1058D9004A052A0150045C0550800A036E02508073
:1058E9000A0358D8A07BEF2CF07DEF2CF06CEF2C3D
:1058F900F012000103030E1C180808111F00011FF4
:1059090012141F1018180E0703020208181C0E03A0
:1059190003010012141F08001F11000203070E18CB
:10592900181000FFEC2CF03BEC2BF0E3EC2CF00012
:1059390009D8B4A2EF2CF0A4EF2CF09AEF2CF0FFC9
:10594900EC2CF0076E3BEC2BF025EC2CF03BEC2B10
:10595900F00750120038EC2DF0000E026E0A0E010D
:105969006E000E046E010E036E8CEC3BF0000E020D
:105979006E090E016E000E046E010E036E8CEC3B77
:10598900F00C0EC16E1200000E106E000E0F6E00AC
:105999000E126E000E116E1BEC2DF0010E7FEC2B1A
:1059A900F0000E106E010E0F6E000E126E000E1139
:1059B9006E1BEC2DF0010E7FEC2BF01200000E0295
:1059C9006E0B0E016E000E046E010E036E8CEC3B25
:1059D900F0000E026E0B0E016ED5EC36F00150028E
:1059E90010D8A4FAEF2CF0FDEF2CF0010EFEEF2CED
:1059F900F0000E1200000E026E0C0E016E000E0475
:105A09006E010E036E8CEC3BF0000E026E0C0E0163
:105A19006ED5EC36F001500210D8A416EF2DF0190E
:105A2900EF2DF0010E1AEF2DF0000E12000F50109D
:105A390010D8A422EF2DF024EF2DF029EF2DF0112D
:105A4900500F0B800F7FEC2BF00F041010D8A430EF
:105A5900EF2DF032EF2DF037EF2DF011500F0BC075
:105A69000F7FEC2BF01200000E026E1F0E016E006C
:105A79000E046E000E036E8CEC3BF0000E026E08F5
:105A89000E016E000E046E000E036E8CEC3BF000EE
:105A99000E026E1E0E016E000E046E000E036E8C59
:105AA900EC3BF01200000E026E180E016E000E049F
:105AB9006E000E036E8CEC3BF0000E026E190E01A7
:105AC9006E000E046E000E036E8CEC3BF0000E02AD
:105AD9006E1A0E016E000E046E000E036E8CEC3B06
:105AE900F01200000E026E1C0E016E000E046E0113
:105AF9000E036E65EC3AF0000E026E050E016E3A69
:105B0900EC2BF0000E026E1C0E016E000E046E00EE
:105B19000E036E65EC3AF0000E026E050E016E3A48
:105B2900EC2BF012000F0E2114236E000E22142408
:105B39006E000E166E100E156E21C013F022C014E1
:105B4900F039EC33F013C01BF014C01CF0000E1E2A
:105B59006E0A0E1D6EAEEC2BF023501B24216E2411
:105B6900501C20226E12005250D8B4BEEF2DF0C046
:105B7900EF2DF0D0EF2DF0FFEC2CF03BEC2BF0E308
:105B8900EC2CF00009D8B4CCEF2DF0CEEF2DF0C4F9
:105B9900EF2DF03BEC2BF0FFEC2CF03AEC2CF03B2A
:105BA900EC2BF025EC2CF0010E526E1200000E08C1
:105BB9006ED00E096E010EA0EC2FF0000E086E0ECD
:105BC900C009F0000EA0EC2FF0000E086ED10E09EE
:105BD9006E010EA0EC2FF0010E086E010E99EC2E4D
:105BE900F0106E1050116E126A11C00EF012C00F33
:105BF900F01200000E026E000E016E000E046E011E
:105C09000E036E8CEC3BF0000E026E010E016E006D
:105C19000E046E010E036E8CEC3BF0000E026E0258
:105C29000E016E000E046E010E036E8CEC3BF0C289
:105C3900800C0EC16EAA0EC06E1200000E026E0814
:105C49000E016E000E046E000E036E65EC3AF00054
:105C59000E096E000E026E1E0E016E800E071403F1
:105C69006E046A65EC3AF0FBEC2BF0D89007360825
:105C790036092A070E096444EF2EF046EF2EF02E5E
:105C8900EF2EF010EC2CF01200000E066E5CEF2ED9
:105C9900F006500224046E000E0320056E04C0F6BF
:105CA900FF05C0F7FF0800F5505AEC2BF0062A064D
:105CB900500224046E000E0320056E04C0F6FF0591
:105CC900C0F7FF0800F5500009D8A46EEF2EF07058
:105CD900EF2EF04DEF2EF01200C30EC21602500740
:105CE900E1030E015CD8B07CEF2EF07EEF2EF0823E
:105CF900EF2EF00144E846FC0BC212C282C2B28800
:105D0900EF2EF08AEF2EF083EF2EF0C4CF03F004CC
:105D19006A0350046E036AC3500326000E0422036B
:105D2900C001F004C002F012000A6E000E0D6E00F0
:105D39000E0C6E000E0B6E96EC2CF0096E0D500DCC
:105D49002409100D6E0B4A0C2A0C5009E1080E0BA0
:105D59005CD8A0B2EF2EF0B4EF2EF0A0EF2EF00A2F
:105D69005019EC2FF00850D8B4BDEF2EF0BFEF2E2C
:105D7900F0C1EF2EF04FEC2CF00D501200000E1474
:105D89006E000E136ED9EF2EF013500F24116E14FE
:105D9900501020126E11C0F6FF12C0F7FF0800F56F
:105DA900508EEC2BF0134A142A13500F24116E1441
:105DB900501020126E11C0F6FF12C0F7FF0800F54F
:105DC900500009D8A4EBEF2EF0EDEF2EF0C9EF2E1D
:105DD900F01200FC0EF66E580EF76E000EF86E000B
:105DE900EE80F010EE30F00900F5CFEEFFE550E15E
:105DF90050FAE1790EF66E560EF76E000EF86E0047
:105E0900EE77F010EE05F00900F5CFEEFFE550E171
:105E190050FAE100EE46F0310EEE6AE806FDE100C7
:105E29000EF86E000153EF39F0076E0750D8B42011
:105E3900EF2FF022EF2FF026EF2FF0FFEC2CF028B8
:105E4900EF2FF03AEC2CF03BEC2BF0E3EC2CF000CC
:105E590009D8B432EF2FF034EF2FF02AEF2FF007E3
:105E690050D8B43AEF2FF03CEF2FF03EEF2FF0FF70
:105E7900EC2CF03BEC2BF025EC2CF03BEC2BF0124E
:105E8900000D6E0DC00CF00C3A0F0E0C160C5007DD
:105E99006E086A22EC2EF0000E026E1D0E016E0ACB
:105EA900C003F00BC004F065EC3AF076EC2DF00D70
:105EB900C00CF00F0E0C160C50076E086A22EC2E5F
:105EC900F0000E026E1D0E016E0AC003F00BC00435
:105ED900F065EC3AF076EC2DF01200146E000E1518
:105EE9006E14500F6E106A010E0F26000E10221547
:105EF90050116E126A0F50115C1250800A136E1005
:105F090050800A1358D8B08CEF2FF08EEF2FF093F2
:105F1900EF2FF0FF0E8EEC2BF096EF2FF0200E8E68
:105F2900EC2BF0152A0F0E15649DEF2FF09FEF2F24
:105F3900F075EF2FF012000A6E0A50D8B4A7EF2FB0
:105F4900F0A9EF2FF0ABEF2FF0B8EC2DF0000E0B0E
:105F59006E09BEB2EF2FF0B5EF2FF0010EB6EF2F9D
:105F6900F0000E19EC2FF0D89009360B2A070E0B0A
:105F790064C1EF2FF0C3EF2FF0ADEF2FF096EC2CAB
:105F8900F00850D8B4CBEF2FF0CDEF2FF0CFEF2F93
:105F9900F04FEC2CF01200000E046E000E036EF6AA
:105FA900EF2FF0000E056E280E0564DEEF2FF0E0EE
:105FB900EF2FF0E2EF2FF0F4EF2FF0000E066E0254
:105FC9000E0664EAEF2FF0ECEF2FF0EEEF2FF0F171
:105FD900EF2FF0062AE4EF2FF0052AD8EF2FF00370
:105FE9004A042A0150035C02500458D8A0FFEF2F3D
:105FF900F001EF30F0D6EF2FF01200030E276EE814
:106009000E266E65EC2BF0C8EC2CF0000E106E001D
:106019000E0F6E000E126E000E116E1BEC2DF0B6F7
:106029000E0F6E7E0E106EC3EC2EF0000E106E0178
:106039000E0F6E000E126E000E116E1BEC2DF08B02
:106049000E0F6E7F0E106EC3EC2EF0130E026E88CB
:106059000E016ED0EC2FF0000E7FEC2BF012000A2F
:10606900500B10D8B43BEF30F03DEF30F061EF301A
:10607900F0010E0C6E45EF30F0D8900A360B360C55
:106089002A0BAE4AEF30F04CEF30F041EF30F00A16
:1060990050085C0B500958D8A055EF30F057EF3035
:1060A900F05BEF30F00A50085E0B50095AD8900B9C
:1060B900320A320C2E4CEF30F008C008F009C00942
:1060C900F0120007A06BEF30F06DEF30F077EF3092
:1060D900F0000E026E180E016E000E046E010E0322
:1060E9006E65EC3AF007A27CEF30F07EEF30F08875
:1060F900EF30F0000E026E190E016E000E046E01F3
:106109000E036E65EC3AF007A48DEF30F08FEF3097
:10611900F099EF30F0000E026E1A0E016E000E04B7
:106129006E010E036E65EC3AF01200236E010ECB80
:10613900241B6E1C6A000E1C2223C01DF01E6AAEB1
:10614900EC2BF01BC024F01CC025F024C001F02565
:10615900C002F0000E046E190E036E0AEC31F00154
:10616900C024F002C025F0FF0E2416030E251624C4
:10617900C021F025C022F0D89022322132D89022B5
:106189003221322150BB6E24C021F0030E21162189
:1061990038F00BBA121200000E166E000E156E00C2
:1061A9000E106E010E0F6E000E126E000E116E1B98
:1061B900EC2DF000EF31F0130E086E880E076E44D7
:1061C900EC31F0166EA50E1618D8B4EEEF30F0F0DB
:1061D900EF30F000EF31F02E0E1618D8B4F7EF308B
:1061E900F0F9EF30F000EF31F016505AEC2BF016C1
:1061F900508EEC2BF0152A2E0E1618D8A407EF3165
:10620900F009EF31F0E0EF30F01200000E066E00F9
:106219000E056E03500410D8B415EF31F017EF31A5
:10622900F03FEF31F0010E076E1FEF31F0D8900308
:10623900360436072A04AE24EF31F026EF31F01B7D
:10624900EF31F0D890053606360350015C04500250
:1062590058D8A032EF31F034EF31F039EF31F00393
:1062690050015E0450025A0580D890043203320767
:106279002E26EF31F005C001F006C002F012000031
:106289000E0A6E000E096EABB44DEF31F04FEF31CF
:10629900F056EF31F0ABA254EF31F056EF31F06424
:1062A900EF31F0AB98AB8864EF31F0000E026E1459
:1062B9000E016ED0EC2FF0140E0926000E0A2207EB
:1062C90050095C08500A58D8A06DEF31F06FEF31D2
:1062D900F078EF31F007500810D8A476EF31F07854
:1062E900EF31F07FEF31F09EAA7DEF31F07FEF3192
:1062F900F05AEF31F09EAA84EF31F086EF31F08940
:10630900EF31F0AE508AEF31F0A50E12002BC00725
:10631900F02CC008F044EC31F0306E000E086E64C9
:106329000E076E44EC31F0316ED00E3124256E2605
:106339006AFF0E2622000E286E0A0E276ED6EC3151
:10634900F025C02DF026C02EF0D00E3024256E2663
:106359006AFF0E2622000E286E0A0E276ED6EC3131
:10636900F025500A0DF3502D242F6EA50E3018D8A4
:10637900B4C1EF31F0C3EF31F0D1EF31F0A50E31F7
:1063890018D8B4CAEF31F0CCEF31F0D1EF31F02F9A
:10639900C02BF02C6AD5EF31F0000E2C6E000E2BBD
:1063A9006E1200000E2A6E26BEDFEF31F0DDEF31EE
:1063B900F0E5EF31F0256C261ED8B0262A010E2A09
:1063C9006E28BEECEF31F0EAEF31F0F0EF31F02753
:1063D9006C281ED8B0282A27502810D8B4F7EF31D6
:1063E900F0F9EF31F01DEF32F0010E296E01EF32B5
:1063F900F0D89027362836292A28AE06EF32F00839
:10640900EF32F0FDEF31F02750255C28502658D89F
:10641900A011EF32F013EF32F017EF32F0275025C9
:106429005E2850265AD89028322732292E08EF3272
:10643900F02A50D8B423EF32F025EF32F029EF32A9
:10644900F0256C261ED8B0262A25C025F026C026A0
:10645900F0120007A033EF32F035EF32F041EF329E
:10646900F0000E026E180E016E000E046E010E038E
:106479006E65EC3AF04BEF32F0000E026E180E0129
:106489006E000E046E000E036E65EC3AF007A25022
:10649900EF32F052EF32F05EEF32F0000E026E1979
:1064A9000E016E000E046E010E036E65EC3AF06883
:1064B900EF32F0000E026E190E016E000E046E002E
:1064C9000E036E65EC3AF007A46DEF32F06FEF3210
:1064D900F07BEF32F0000E026E1A0E016E000E0410
:1064E9006E010E036E65EC3AF085EF32F0000E0294
:1064F9006E1A0E016E000E046E000E036E65EC3A04
:10650900F01200176EB9EF32F0560E0F6E7E0E10B4
:106519006EC3EC2EF0DEEF32F03D0E0F6E7E0E10E4
:106529006EC3EC2EF0DEEF32F0820E0F6E7E0E108F
:106539006EC3EC2EF0DEEF32F06E0E0F6E7E0E1093
:106549006EC3EC2EF0DEEF32F0240E0F6E7E0E10CD
:106559006EC3EC2EF0DEEF32F00B0E0F6E7F0E10D5
:106569006EC3EC2EF0DEEF32F01750156E166A1678
:1065790050000AD8B4C3EF32F0DEEF32F015500004
:106589000AD8B489EF32F0010AD8B491EF32F00396
:106599000AD8B499EF32F0010AD8B4A1EF32F00762
:1065A9000AD8B4A9EF32F0010AD8B4B1EF32F0DE5B
:1065B900EF32F01200000E026E1C0E016E000E0486
:1065C9006E000E036E8CEC3BF0000E026E1D0E0188
:1065D9006E000E046E000E036E8CEC3BF038EC2D51
:1065E900F0000E026E0F0E016E66EC2CF0000E0B21
:1065F9006E000E0A6E030EC1EC2BF0000E026E0542
:106609000E016E66EC2CF0000E0B6E000E0A6E0386
:106619000EC1EC2BF0000E026EA00E016E3AEC2BAF
:10662900F0000E0B6E000E0A6E030EC1EC2BF0008B
:106639000E026EA00E016E3AEC2BF0000E0B6E00EE
:106649000E0A6E020EC1EC2BF0000E026E0A0E014C
:106659006E66EC2CF0280E7FEC2BF00C0E7FEC2BE9
:10666900F0010E7FEC2BF01200000E186E16BE42E0
:10667900EF33F040EF33F048EF33F0156C161ED8C6
:10668900B0162A010E186E14BE4FEF33F04DEF33DA
:10669900F055EF33F0136C141ED8B0142A010E18FC
:1066A9001A000E1A6E000E196E15501610D8B46025
:1066B900EF33F062EF33F08AEF33F0010E176E6AB1
:1066C900EF33F0D89015361636172A16AE6FEF331A
:1066D900F071EF33F066EF33F0D89019361A3615AA
:1066E90050135C16501458D8A07DEF33F07FEF3368
:1066F900F084EF33F01550135E1650145A1980D8F0
:106709009016321532172E71EF33F01850D8B49015
:10671900EF33F092EF33F096EF33F0196C1A1ED87D
:10672900B01A2A19C013F01AC014F01200176EDE3D
:10673900EF33F0D40E0F6E7F0E106EC3EC2EF00BFC
:10674900EF34F0990E0F6E7F0E106EC3EC2EF00B26
:10675900EF34F0A50E0F6E7F0E106EC3EC2EF00B0A
:10676900EF34F0DF0E0F6E7F0E106EC3EC2EF00BC0
:10677900EF34F0B10E0F6E7F0E106EC3EC2EF00BDE
:10678900EF34F0EA0E0F6E7F0E106EC3EC2EF00B95
:10679900EF34F0BD0E0F6E7F0E106EC3EC2EF00BB2
:1067A900EF34F0C90E0F6E7F0E106EC3EC2EF00B96
:1067B900EF34F01750156E166A1650000AD8B4E86F
:1067C900EF33F00BEF34F01550000AD8B49EEF33D5
:1067D900F0010AD8B4A6EF33F0030AD8B4AEEF3308
:1067E900F0010AD8B4B6EF33F0070AD8B4BEEF33D4
:1067F900F0010AD8B4C6EF33F0030AD8B4CEEF33A8
:10680900F0010AD8B4D6EF33F00BEF34F0120000E0
:106819000E0A6E08BE15EF34F013EF34F01FEF3493
:10682900F0081E071E061E056C000E062207220828
:1068390022010E0A6E04BE26EF34F024EF34F03044
:10684900EF34F0041E031E021E016C000E02220327
:10685900220422010E0A1A000E0B6E000E0C6E00A5
:106869000E0D6E000E0E6E0550061007100810D89A
:10687900B441EF34F043EF34F079EF34F0010E090D
:106889006E4DEF34F0D890053606360736083609CE
:106899002A08AE52EF34F054EF34F047EF34F0D811
:1068A900900B360C360D360E360550015C0650023B
:1068B900580750035808500458D8A066EF34F068B8
:1068C900EF34F071EF34F00550015E0650025A07BB
:1068D90050035A0850045A0B80D8900832073206E0
:1068E900320532092E54EF34F00A50D8B47FEF3410
:1068F900F081EF34F089EF34F00E1E0D1E0C1E0BE3
:106909006C000E0C220D220E220BC001F00CC002ED
:10691900F00DC003F00EC004F012002B505518D82A
:10692900B499EF34F09BEF34F018EF35F0000E1006
:106939006E000E0F6E000E126E000E116E1BEC2D06
:10694900F0940E0F6E7E0E106EC3EC2EF0000E103A
:106959006E010E0F6E000E126E000E116E1BEC2DE5
:10696900F0F40E0F6E7F0E106EC3EC2EF0020E16B1
:106979006E580E156E55C013F0146A39EC33F013C6
:10698900C025F014C026F0000E286E060E276ED61C
:10699900EC31F02550300F8EEC2BF0000E166E3CCA
:1069A9000E156E55C013F0146A39EC33F013C02577
:1069B900F014C026F0000E286E0A0E276ED6EC31B0
:1069C900F02550300F8EEC2BF03A0E8EEC2BF000A8
:1069D9000E166E0A0E156E55C013F0146A39EC3393
:1069E900F013C025F014C026F0000E286E060E27FD
:1069F9006ED6EC31F02550300F8EEC2BF055C025BA
:106A0900F0266A000E286E0A0E276ED6EC31F025A4
:106A190050300F8EEC2BF0F50E0F6E7F0E106EC3FB
:106A2900EC2EF0010E7B6E1200000E106E000E0FA0
:106A39006E000E126E000E116E1BEC2DF01D0E0F66
:106A49006E7F0E106EC3EC2EF01C0E026E7F0E03CD
:106A59006E49EC2EF0000E106E010E0F6E000E1234
:106A69006E030E116E1BEC2DF0270E2C6E100E2BE3
:106A79006E8BEC31F02B50326E3250D8B447EF3573
:106A8900F049EF35F04BEF35F032C033F0C8EC2C5C
:106A9900F0000E106E010E0F6E000E126E000E1138
:106AA9006E1BEC2DF00E0E33645DEF35F05FEF35A4
:106AB900F067EF35F01D0E336465EF35F067EF359C
:106AC900F075EF35F0000E086E010E076E2EEC32F0
:106AD900F0E90E0F6E7E0E106EC3EC2EF09FEF35AF
:106AE900F0110E33647BEF35F07DEF35F085EF352E
:106AF900F0190E336483EF35F085EF35F093EF35F8
:106B0900F0000E086E030E076E2EEC32F04C0E0FDD
:106B19006E7F0E106EC3EC2EF09FEF35F0000E085D
:106B29006E020E076E2EEC32F03C0E0F6E7F0E10C9
:106B39006EC3EC2EF00B0E026EB80E016ED0EC2F68
:106B4900F0120020EE80F010EE0FF02F0EDBCFE3F5
:106B5900FFE806FCE2400E7FEC2BF0000E3F6E0FC3
:106B69000E3F24D96EDA6A000EDA22DF508EEC2B42
:106B7900F03F2A070E3F64C4EF35F0C6EF35F0B495
:106B8900EF35F0480E7FEC2BF0080E3F6E0F0E3FED
:106B990024D96EDA6A000EDA22DF508EEC2BF03F30
:106BA9002A0F0E3F64DBEF35F0DDEF35F0CBEF3523
:106BB900F0500E7FEC2BF0100E3F6E0F0E3F24D9D4
:106BC9006EDA6A000EDA22DF508EEC2BF03F2A17BC
:106BD9000E3F64F2EF35F0F4EF35F0E2EF35F0589F
:106BE9000E7FEC2BF0180E3F6E0F0E3F24D96EDA94
:106BF9006A000EDA22DF508EEC2BF03F2A1F0E3F7F
:106C09006409EF36F00BEF36F0F9EF35F0700E7FCF
:106C1900EC2BF0200E3F6E0F0E3F24D96EDA6A007E
:106C29000EDA22DF508EEC2BF03F2A270E3F64202C
:106C3900EF36F022EF36F010EF36F0780E7FEC2BBE
:106C4900F0280E3F6E0F0E3F24D96EDA6A000EDA75
:106C590022DF508EEC2BF03F2A2F0E3F6437EF36A0
:106C6900F039EF36F027EF36F01200000E496E00CA
:106C79000E486E000E0E6E000E0D6E0EBE4EEF36F5
:106C8900F00E5009E1050E0D5CD8A04EEF36F0501C
:106C9900EF36F052EF36F0B3EF36F00DC00AF003DD
:106CA9000E0A26010E0B6E000E0C6E0A2A60EF36D4
:106CB900F0D8900B360C360A2E5DEF36F00BC00774
:106CC900F00CC008F022EC2EF0000E026E0A0E0144
:106CD9006ED5EC36F001500210D8B476EF36F07864
:106CE900EF36F08BEF36F00DC00AF0010E0B6E0097
:106CF9000E0C6E0A2A84EF36F0D8900B360C360A41
:106D09002E81EF36F00B5048120C504912000E023A
:106D19006E090E016ED5EC36F001500210D8B49808
:106D2900EF36F09AEF36F0AFEF36F00DC00AF00506
:106D39000E0A26010E0B6E000E0C6E0A2AA8EF36FB
:106D4900F0D8900B360C360A2EA5EF36F00B5048CA
:106D5900120C5049120D4A0E2A42EF36F04850469D
:106D69001807E149504718D8A4BDEF36F0BFEF36F0
:106D7900F0C2EF36F05106C8EF36F0010E516E48F9
:106D8900C046F049C047F05150D8A4CEEF36F0D0F4
:106D9900EF36F0D4EF36F046C04AF047C04BF01258
:106DA9000002BEE3EF36F0025007E1080E015CD89D
:106DB900B0E1EF36F0E3EF36F0F7EF36F001C0035C
:106DC900F0010E046E032AECEF36F0D89004360376
:106DD9002EEAEF36F004508014056E0550016E025C
:106DE9006A89EF37F002BE05EF37F0025007E1106C
:106DF9000E015CD8B003EF37F005EF37F01BEF3722
:106E0900F001C003F0F80E0326010E046E032A10E8
:106E1900EF37F0D8900436032E0EEF37F004508187
:106E290014056E0550016E026A89EF37F002BE291A
:106E3900EF37F0025007E1180E015CD8B027EF37A1
:106E4900F029EF37F03FEF37F001C003F0F00E0300
:106E590026010E046E032A34EF37F0D89004360366
:106E69002E32EF37F004508214056E0550016E0280
:106E79006A89EF37F002BE4DEF37F0025007E12083
:106E89000E015CD8B04BEF37F04DEF37F063EF37B9
:106E9900F001C003F0E80E0326010E046E032A5820
:106EA900EF37F0D8900436032E56EF37F0045083AD
:106EB90014056E0550016E026A89EF37F002BE7142
:106EC900EF37F0025007E1280E015CD8B06FEF37B9
:106ED900F071EF37F087EF37F001C003F0E00E03F0
:106EE90026010E046E032A7CEF37F0D8900436038E
:106EF9002E7AEF37F004508414056E0550016E02A6
:106F09006A89EF37F0016802681200000E106E00FE
:106F19000E0F6E000E126E000E116E1BEC2DF06C32
:106F29000E0F6E7F0E106EC3EC2EF0000E106E0168
:106F39000E0F6E000E126E000E116E1BEC2DF0FA84
:106F49000E0F6E7E0E106EC3EC2EF00B0E026EB895
:106F59000E016ED0EC2FF0C8EC2CF0000E106E0074
:106F69000E0F6E000E126E000E116E1BEC2DF05CF2
:106F79000E0F6E7F0E106EC3EC2EF0000E106E0118
:106F89000E0F6E000E126E000E116E1BEC2DF02C02
:106F99000E0F6E7F0E106EC3EC2EF00B0E026EB844
:106FA9000E016ED0EC2FF0C8EC2CF0000E106E0024
:106FB9000E0F6E000E126E000E116E1BEC2DF07C82
:106FC9000E0F6E7F0E106EC3EC2EF0A50E026E7EB4
:106FD9000E036E49EC2EF0670E136E000E146ED080
:106FE900EC30F0C8EC2CF0000E106E000E0F6E00A5
:106FF9000E126E000E116E1BEC2DF0D80E0F6E7E68
:107009000E106EC3EC2EF0040E026E7E0E036E4956
:10701900EC2EF0570E136E000E146ED0EC30F0C843
:10702900EC2CF019EC35F00B0E026EB80E016ED097
:10703900EC2FF0C8EC2CF0000E106E000E0F6E0055
:107049000E126E000E116E1BEC2DF0C70E0F6E7E28
:107059000E106EC3EC2EF0000E106E010E0F6E00B6
:107069000E126E000E116E1BEC2DF0130E026E88BF
:107079000E016ED0EC2FF01200000E026E010E010F
:107089006E71EC2EF001C013F002C014F0000E1660
:107099006E400E156E39EC33F01350386E37503898
:1070A90018D8B45AEF38F05CEF38F05EEF38F001D9
:1070B9000E7B6E7B50D8B464EF38F066EF38F0522F
:1070C900EF39F033EF39F0B3EC3CF050EF39F00021
:1070D9000E106E000E0F6E000E126E000E116E1B5A
:1070E900EC2DF07A5086EC32F0000E106E010E0F86
:1070F9006E000E126E000E116E1BEC2DF0385072E0
:10710900EC2FF050EF39F0000E106E000E0F6E00EC
:107119000E126E000E116E1BEC2DF079509BEC33A4
:10712900F0030E166EE80E156E7950020DEA0EF395
:1071390024F66E7D0EF420F76E0900F5CF13F00AE0
:1071490000F5CF14F039EC33F013C025F014C02644
:10715900F0000E286E0A0E276ED6EC31F02550305D
:107169000F8EEC2BF0000E166E640E156E79500220
:107179000DEA0EF324F66E7D0EF420F76E0900F584
:10718900CF13F00A00F5CF14F039EC33F013C02512
:10719900F014C026F0000E286E0A0E276ED6EC31C8
:1071A900F02550300F8EEC2BF0000E166E0A0E15DE
:1071B9006E7950020DEA0EF324F66E7D0EF420F777
:1071C9006E0900F5CF13F00A00F5CF14F039EC334E
:1071D900F013C025F014C026F0000E286E0A0E2701
:1071E9006ED6EC31F02550300F8EEC2BF02C0E8E34
:1071F900EC2BF07950020DEA0EF324F66E7D0EF4B5
:1072090020F76E0900F5CF25F00A00F5CF26F0002A
:107219000E286E0A0E276ED6EC31F02550300F8EEF
:10722900EC2BF0F70E0F6E7F0E106EC3EC2EF000F4
:107239000E106E010E0F6E000E126E000E116E1BF7
:10724900EC2DF0385072EC2FF050EF39F092EC340D
:10725900F050EF39F0000E536E50EF39F0535035BE
:107269006E366A3650000AD8B43DEF39F02FEF393F
:10727900F03550000AD8B468EF38F0010AD8B46C78
:10728900EF38F0030AD8B488EF38F0010AD8B42BE4
:10729900EF39F02FEF39F0000E7B6E1200000E432C
:1072A9006E57EC2DF0AFEC2CF0FEEC2DF0DFEC324C
:1072B900F072EC2BF0A6EC35F03FEC2BF050EC2BF8
:1072C900F0000E086E040E076E66EC30F0010E2712
:1072D9006EF40E266E65EC2BF08AEC37F0000E0288
:1072E9006E320E016E9DEC2BF039EF3AF041EC381D
:1072F900F0010E436E56EF3AF0000E446E3AEC364A
:10730900F04550406E416A43EC2BF040500118099A
:10731900E141500218D8B494EF39F096EF39F017DB
:10732900EF3AF0010E7B6E43EC2BF00150456E45B0
:10733900A0A1EF39F0A3EF39F0AEEF39F0070E79DC
:1073490060A9EF39F0ABEF39F0AEEF39F0792A02E5
:107359000E536E45A4B3EF39F0B5EF39F0C0EF39EC
:10736900F07950D8B4BBEF39F0BDEF39F0C0EF393F
:10737900F07906020E536E45A2C5EF39F0C7EF3911
:10738900F0D2EF39F07A50D8B4CDEF39F0CFEF39E8
:10739900F0D2EF39F07A06010E536E45A6D7EF39D0
:1073A900F0D9EF39F0E4EF39F0050E7A60DFEF3903
:1073B900F0E1EF39F0E4EF39F07A2A010E536E4526
:1073C900A8E9EF39F0EBEF39F0EDEF39F0000E53A2
:1073D9006E45AEF2EF39F0F4EF39F003EF3AF0030E
:1073E9000E5318D8A4FBEF39F0FDEF39F001EF3A4D
:1073F900F0000E556E010E566E030E536E45AC0825
:10740900EF3AF00AEF3AF017EF3AF0030E536E56DF
:1074190050D8B412EF3AF015EF3AF0010E16EF3AE0
:10742900F0000E566E442A040E44641EEF3AF02012
:10743900EF3AF083EF39F0020E436E56EF3AF0144B
:107449000E42642AEF3AF02CEF3AF02FEF3AF0555A
:107459002A000E426E030E436E56EF3AF0E7EC2B0C
:10746900F0000E436E56EF3AF04350406E416A41C8
:1074790050000AD8B443EF3AF035EF3AF0405000E3
:107489000AD8B47BEF39F0010AD8B481EF39F00397
:107499000AD8B424EF3AF0010AD8B433EF3AF035F8
:1074A900EF3AF05650D8B45CEF3AF05EEF3AF05F3D
:1074B900EF3AF0422A48EC2BF073EF39F000EF0075
:1074C900F002BE73EF3AF0025007E1080E015CD8F2
:1074D900B071EF3AF073EF3AF09DEF3AF0035004D0
:1074E90010D8B47AEF3AF07CEF3AF08CEF3AF00129
:1074F900C005F0010E066E052A85EF3AF0D8900610
:1075090036052E83EF3AF0065080128BEF3BF001DF
:10751900C005F0010E066E052A95EF3AF0D89006DF
:1075290036052E93EF3AF00650FF0A80168BEF3B93
:10753900F002BEABEF3AF0025007E1100E015CD841
:10754900B0A9EF3AF0ABEF3AF0D9EF3AF0F80E0103
:1075590026FF0E022203500410D8B4B6EF3AF0B851
:10756900EF3AF0C8EF3AF001C005F0010E066E05DA
:107579002AC1EF3AF0D8900636052EBFEF3AF00649
:107589005081128BEF3BF001C005F0010E066E052C
:107599002AD1EF3AF0D8900636052ECFEF3AF00609
:1075A90050FF0A81168BEF3BF002BEE7EF3AF0027B
:1075B9005007E1180E015CD8B0E5EF3AF0E7EF3A71
:1075C900F015EF3BF0F00E0126FF0E0222035004E6
:1075D90010D8B4F2EF3AF0F4EF3AF004EF3BF001CF
:1075E900C005F0010E066E052AFDEF3AF0D89006A7
:1075F90036052EFBEF3AF0065082128BEF3BF00175
:10760900C005F0010E066E052A0DEF3BF0D8900675
:1076190036052E0BEF3BF00650FF0A82168BEF3B27
:10762900F002BE23EF3BF0025007E1200E015CD8C7
:10763900B021EF3BF023EF3BF051EF3BF0E80E01B7
:1076490026FF0E022203500410D8B42EEF3BF0306F
:10765900EF3BF040EF3BF001C005F0010E066E056F
:107669002A39EF3BF0D8900636052E37EF3BF00666
:107679005083128BEF3BF001C005F0010E066E0539
:107689002A49EF3BF0D8900636052E47EF3BF00626
:1076990050FF0A83168BEF3BF002BE5FEF3BF0020F
:1076A9005007E1280E015CD8B05DEF3BF05FEF3B7E
:1076B900F08BEF3BF0E00E0126FF0E02220350048F
:1076C90010D8B46AEF3BF06CEF3BF07CEF3BF00174
:1076D900C005F0010E066E052A75EF3BF0D890063D
:1076E90036052E73EF3BF0065084128BEF3BF00109
:1076F900C005F0010E066E052A85EF3BF0D890060D
:1077090036052E83EF3BF00650FF0A84161200025D
:10771900BE9AEF3BF0025007E1080E015CD8B09821
:10772900EF3BF09AEF3BF0C4EF3BF003500410D865
:10773900B4A1EF3BF0A3EF3BF0B3EF3BF001C00581
:10774900F0010E066E052AACEF3BF0D8900636051F
:107759002EAAEF3BF006509212B2EF3CF001C005A1
:10776900F0010E066E052ABCEF3BF0D890063605EF
:107779002EBAEF3BF00650FF0A9216B2EF3CF00228
:10778900BED2EF3BF0025007E1100E015CD8B0D039
:10779900EF3BF0D2EF3BF000EF3CF003500410D880
:1077A900B4D9EF3BF0DBEF3BF0EDEF3BF001C00567
:1077B900F0F80E0526010E066E052AE6EF3BF0D815
:1077C900900636052EE4EF3BF006509312B2EF3CDB
:1077D900F001C005F0F80E0526010E066E052AF81F
:1077E900EF3BF0D8900636052EF6EF3BF00650FF3A
:1077F9000A9316B2EF3CF002BE0EEF3CF0025007BE
:10780900E1180E015CD8B00CEF3CF00EEF3CF03CF7
:10781900EF3CF003500410D8B415EF3CF017EF3CDF
:10782900F029EF3CF001C005F0F00E0526010E0627
:107839006E052A22EF3CF0D8900636052E20EF3C43
:10784900F006509412B2EF3CF001C005F0F00E05BD
:1078590026010E066E052A34EF3CF0D8900636054F
:107869002E32EF3CF00650FF0A9416B2EF3CF002BC
:10787900BE4AEF3CF0025007E1200E015CD8B04847
:10788900EF3CF04AEF3CF078EF3CF003500410D89D
:10789900B451EF3CF053EF3CF065EF3CF001C0050B
:1078A900F0E80E0526010E066E052A5EEF3CF0D8BB
:1078B900900636052E5CEF3CF006509512B2EF3C6F
:1078C900F001C005F0E80E0526010E066E052A70C6
:1078D900EF3CF0D8900636052E6EEF3CF00650FFCF
:1078E9000A9516B2EF3CF002BE86EF3CF002500753
:1078F900E1280E015CD8B084EF3CF086EF3CF0B291
:10790900EF3CF003500410D8B48DEF3CF08FEF3CFE
:10791900F0A1EF3CF001C005F0E00E0526010E06CE
:107929006E052A9AEF3CF0D8900636052E98EF3C62
:10793900F006509612B2EF3CF001C005F0E00E05DA
:1079490026010E066E052AACEF3CF0D890063605E6
:107959002EAAEF3CF00650FF0A96161200000E10F0
:107969006E000E0F6E000E126E000E116E1BEC2DC6
:10797900F0000E8EEC2BF0010E8EEC2BF0020E8E29
:10798900EC2BF0F90E0F6E7F0E106EC3EC2EF0008B
:107999000E0F6E030E0E6EDBEC2DF0070E0E14218A
:1079A9006E226A97EC2DF02150030DF3CF30F0E9E8
:1079B900EF3CF0C50E3024F66EF76A7D0EF722080B
:1079C90000F5508EEC2BF0302A000E0F6E030E0ED0
:1079D9006EDBEC2DF0070E0E14216E226A97EC2D4A
:1079E900F021C02EF022C02FF02EC01BF02FC01C9A
:1079F900F0000E1E6E030E1D6EAEEC2BF0030E1B77
:107A090026000E1C2230502B6E2C6A1B502B5C2C2E
:107A190050800A2D6E1C50800A2D58D8A017EF3DB2
:107A2900F019EF3DF0DEEF3CF0200E8EEC2BF0006C
:107A39000E0F6E040E0E6EDBEC2DF05F0E0E142190
:107A49006E226A97EC2DF021C033F022C034F00089
:107A59000E166E0A0E156E33C013F034C014F039C9
:107A6900EC33F013C025F014C026F0000E286E0A7E
:107A79000E276ED6EC31F02550300F8EEC2BF0002E
:107A89000E0F6E040E0E6EDBEC2DF05F0E0E142140
:107A99006E226A97EC2DF021C025F022C026F00055
:107AA9000E286E0A0E276ED6EC31F02550300F8E57
:107AB900EC2BF02F0E8EEC2BF0000E0F6E050E0E38
:107AC9006EDBEC2DF03F0E0E14216E226A97EC2D21
:107AD900F021C033F022C034F0000E166E0A0E15E4
:107AE9006E33C013F034C014F039EC33F013C025F1
:107AF900F014C026F0000E286E0A0E276ED6EC315F
:107B0900F02550300F8EEC2BF0000E0F6E050E0E87
:107B19006EDBEC2DF03F0E0E14216E226A97EC2DD0
:107B2900F021C025F022C026F0000E286E0A0E278B
:107B39006ED6EC31F02550300F8EEC2BF02F0E8ED7
:107B4900EC2BF0000E0F6E060E0E6EDBEC2DF00E18
:107B590050216E226A97EC2DF021C033F022C034F7
:107B6900F0000E166E0A0E156E33C013F034C014F1
:107B7900F039EC33F013C025F014C026F0000E28BC
:107B89006E0A0E276ED6EC31F02550300F8EEC2B95
:107B9900F0000E0F6E060E0E6EDBEC2DF00E50216E
:107BA9006E226A97EC2DF021C025F022C026F00044
:107BB9000E286E0A0E276ED6EC31F02550300F8E46
:107BC900EC2BF0F80E0F6E7F0E106EC3EC2EF0004A
:107BD9000E106E010E0F6E000E126E000E116E1B4E
:107BE900EC2DF0030E8EEC2BF0060E8EEC2BF0072D
:107BF9000E8EEC2BF0D89078302C6E77302B6E6689
:107C09000E2B24316E010E2C20326E200E8EEC2BA1
:107C1900F0000E046E640E036E31C001F032C00232
:107C2900F00AEC31F001C008F002C009F0000E0BB7
:107C39006E0A0E0A6E34EC30F00850300F8EEC2BC1
:107C4900F0000E046E0A0E036E31C001F032C0025C
:107C5900F00AEC31F001C008F002C009F0000E0B87
:107C69006E0A0E0A6E34EC30F00850300F8EEC2B91
:107C7900F02C0E8EEC2BF031C008F032C009F00068
:107C89000E0B6E0A0E0A6E34EC30F00850300F8E6F
:107C9900EC2BF0FB0E0F6E7F0E106EC3EC2EF00076
:107CA9000E0F6E020E0E6EDBEC2DF05F0E0E142120
:107CB9006E226A97EC2DF021C033F022C034F00017
:107CC9000E166E0A0E156E33C013F034C014F03957
:107CD900EC33F013C025F014C026F0000E286E0A0C
:107CE9000E276ED6EC31F02550300F8EEC2BF000BC
:107CF9000E0F6E020E0E6EDBEC2DF05F0E0E1421D0
:107D09006E226A97EC2DF021C025F022C026F000E2
:107D19000E286E0A0E276ED6EC31F02550300F8EE4
:107D2900EC2BF03A0E8EEC2BF0000E0F6E010E0EBE
:107D39006EDBEC2DF07F0E0E14216E226A97EC2D6E
:107D4900F021C033F022C034F0000E166E0A0E1571
:107D59006E33C013F034C014F039EC33F013C0257E
:107D6900F014C026F0000E286E0A0E276ED6EC31EC
:107D7900F02550300F8EEC2BF0000E0F6E010E0E19
:107D89006EDBEC2DF07F0E0E14216E226A97EC2D1E
:107D9900F021C025F022C026F0000E286E0A0E2719
:107DA9006ED6EC31F02550300F8EEC2BF0F70E0F1C
:107DB9006E7F0E106EC3EC2EF0120000446F6D53EF
:107DC9006567546572517561517569536578536179
:107DD900623F065B4F666D7D077F6F777C395E7901
:107DE9007173038503C303ED03F80332045404A13B
:107DF90004554C44525358414259730A44696761C6
:107E090020736575206E756D65726F206465206DD0
:107E19006174726963756C613A2000496E666965BF
:107E29006C202D204D6172696C6961204D656E640D
:107E39006F636100416E61204A756C6961202D2074
:107E49004C6F73204865726D616E6F730048657978
:107E5900204A756465202D20546865204265657443
:107E69007765732000416E64656920736F202D204A
:107E79004E61746972757473004372617A79202D49
:107E8900204165726F736D69746800202020437208
:107E99006F6E6F6D6574726F202020000A446967E8
:107EA9006120736575206E6F6D653A2000416C67BE
:107EB9006F206465752065727261646F2100536576
:107EC9006A612062656D2076696E646F2F61004476
:107ED9006967612061206D6174726963756C610005
:107EE90050726F63757265206F206D656469636F89
:107EF90000536D6172747768616374207669737475
:107F09006F00457069746166696F202D205469742A
:107F19006173000A446967697465206F20494D439C
:107F29003A200020436F6E666967757261646F2E2F
:107F39002E2E004F6B2C205361756465206F746978
:107F49006D6100536520616C696D656E74652062B1
:107F5900656D00456C652070726563697361207396
:107F690065720045737465206568206F206D6169CD
:107F79006F72004469676120736575206E6F6D6566
:107F89003A004465736C6967616E646F2E2E2E002A
:107F99005375636573736F20464D20004D61697396
:107FA900206C6567616C2000526164696F20506FB5
:107FB900766F2000506F6C697469636120464D00CB
:107FC90053657274616E656A612000464D2043698C
:107FD900646164652000526164696F2050616E209C
:107FE90000526164696F6E616C200020202020209E
:067FF900200043200000FF
:020000040020DA
:08000000FFFFFFFFFFFFFFFF00
:020000040030CA
:0E000000FF071F1FFF8385FF0FC00FE00F409B
:00000001FF
